:020000040800F2
:1000000000800120750C00087D0B0008830B0008A0
:10001000890B00088F0B0008950B000800000000FA
:100020000000000000000000000000009B0B000822
:10003000A90B000800000000B70B0008C50B000862
:10004000C50C0008C50C0008C50C0008C50C00084C
:10005000C50C0008C50C0008C50C0008C50C00083C
:10006000C50C0008C50C0008C50C0008C50C00082C
:10007000C50C0008C50C0008C50C0008D10B000811
:10008000C50C0008C50C0008C50C0008C50C00080C
:10009000C50C0008C50C0008C50C0008C50C0008FC
:1000A000C50C0008C50C0008C50C0008C50C0008EC
:1000B000C50C0008C50C0008C50C0008C50C0008DC
:1000C000C50C0008C50C0008C50C0008C50C0008CC
:1000D000C50C0008C50C0008C50C0008C50C0008BC
:1000E000C50C0008C50C0008C50C0008C50C0008AC
:1000F000C50C0008C50C0008C50C0008C50C00089C
:10010000C50C0008C50C0008C50C0008C50C00088B
:10011000C50C0008C50C0008C50C0008C50C00087B
:10012000C50C0008C50C0008C50C0008C50C00086B
:10013000C50C0008C50C0008C50C0008C50C00085B
:10014000C50C0008C50C0008C50C0008C50C00084B
:10015000C50C0008C50C0008C50C0008C50C00083B
:10016000C50C0008C50C0008C50C0008C50C00082B
:10017000C50C0008C50C00080000000000000000CD
:08018000C50C0008C50C0008C5
:1001900010B5054C237833B9044B13B10448AFF3C1
:1001A00000800123237010BD200E002000000000FD
:1001B000707F000808B5034B1BB103490348AFF338
:1001C000008008BD00000000240E0020707F0008A1
:1001D00001F0FF01102A2BDB10F0070F08D010F8F8
:1001E000013B013A8B422DD010F0070F42B3F6D1FC
:1001F000F0B441EA012141EA014122F007047FF015
:1002000000070023F0E80256083C85EA010586EA6B
:10021000010685FA47F5A3FA87F586FA47F6A5FAA7
:1002200087F68EB9EED1F0BC01F0FF0102F00702B3
:1002300032B110F8013B013A83EA010313B1F8D15E
:100240000020704701387047002D06BF354603383F
:10025000073815F0010F07D1013015F4807F02BF78
:10026000013015F4C03F0130F0BC0138704700BFC9
:1002700053B94AB9002908BF00281CBF4FF0FF310D
:100280004FF0FF3000F074B9ADF1080C6DE904CE09
:1002900000F006F8DDF804E0DDE9022304B0704761
:1002A0002DE9F047089D04468E46002B4DD18A4229
:1002B000944669D9B2FA82F252B101FA02F3C2F15C
:1002C000200120FA01F10CFA02FC41EA030E9440ED
:1002D0004FEA1C48210CBEFBF8F61FFA8CF708FB0E
:1002E00016E341EA034306FB07F199420AD91CEBE6
:1002F000030306F1FF3080F01F81994240F21C8118
:10030000023E63445B1AA4B2B3FBF8F008FB10335F
:1003100044EA034400FB07F7A7420AD91CEB040494
:1003200000F1FF3380F00A81A74240F20781644464
:10033000023840EA0640E41B00261DB1D4400023E9
:10034000C5E900433146BDE8F0878B4209D9002D4D
:1003500000F0EF800026C5E9000130463146BDE8D7
:10036000F087B3FA83F6002E4AD18B4202D3824241
:1003700000F2F980841A61EB030301209E46002DF0
:10038000E0D0C5E9004EDDE702B9FFDEB2FA82F245
:10039000002A40F09280A1EB0C014FEA1C471FFAA3
:1003A0008CFE0126200CB1FBF7F307FB131140EA8A
:1003B00001410EFB03F0884208D91CEB010103F157
:1003C000FF3802D2884200F2CB804346091AA4B219
:1003D000B1FBF7F007FB101144EA01440EFB00FEED
:1003E000A64508D91CEB040400F1FF3102D2A64552
:1003F00000F2BB800846A4EB0E0440EA03409CE7F1
:10040000C6F12007B34022FA07FC4CEA030C20FA9D
:1004100007F401FA06F31C43F9404FEA1C4900FABD
:1004200006F3B1FBF9F8200C1FFA8CFE09FB18113A
:1004300040EA014108FB0EF0884202FA06F20BD9AD
:100440001CEB010108F1FF3A80F08880884240F2FD
:100450008580A8F102086144091AA4B2B1FBF9F041
:1004600009FB101144EA014100FB0EFE8E4508D93C
:100470001CEB010100F1FF346CD28E456AD90238C1
:10048000614440EA0840A0FB0294A1EB0E01A142A6
:10049000C846A64656D353D05DB1B3EB080261EB14
:1004A0000E0101FA07F722FA06F3F1401F43C5E9EE
:1004B000007100263146BDE8F087C2F12003D84024
:1004C0000CFA02FC21FA03F3914001434FEA1C4766
:1004D0001FFA8CFEB3FBF7F007FB10360B0C43EA58
:1004E000064300FB0EF69E4204FA02F408D91CEB08
:1004F000030300F1FF382FD29E422DD90238634406
:100500009B1B89B2B3FBF7F607FB163341EA0341A5
:1005100006FB0EF38B4208D91CEB010106F1FF38F4
:1005200016D28B4214D9023E6144C91A46EA0046EB
:1005300038E72E46284605E70646E3E61846F8E67D
:100540004B45A9D2B9EB020864EB0C0E0138A3E7C6
:100550004646EAE7204694E74046D1E7D0467BE7A7
:10056000023B614432E7304609E76444023842E71F
:10057000704700BF80B500AF00F0A5FB00F018F891
:1005800000F0E8F800F0C8F800F096F800F072F813
:10059000054802F0EBFC00F055F940F6D132034972
:1005A000014802F0C5FDFEE7600E00202C0F002080
:1005B00080B596B000AF07F114034422002118461D
:1005C00006F0E4FB3B4600221A605A609A60DA604B
:1005D0001A614FF4007001F0A7F90346002B01D017
:1005E00000F0F8F901F082F9214BD3F89030204A5D
:1005F00023F01803C2F8903014237B610123FB61C0
:100600000123FB6200233B6360237B630223FB63C4
:1006100001233B6401237B642823BB640723FB6421
:1006200002233B6502237B6507F11403184601F0A2
:10063000D1F90346002B01D000F0CCF90F233B6029
:1006400003237B600023BB600023FB6000233B612E
:100650003B460421184601F099FD0346002B01D0CA
:1006600000F0B8F902F0A0FA00BF5837BD4680BDCF
:100670000010024080B500AF0D4B0E4A1A600C4BC3
:1006800000221A710A4B00225A71094B00225A614A
:10069000074B00229A61064B01221A62044800F0BF
:1006A00099FC0346002B01D000F094F900BF80BDF7
:1006B0003C0E00200030024080B500AF144B154ABC
:1006C0001A60134B4FF4E1325A60114B00229A60CA
:1006D0000F4B0022DA600E4B00221A610C4B0C22E9
:1006E0005A610B4B00229A61094B0022DA61084BD8
:1006F00000221A62064B00225A62054802F036FCBC
:100700000346002B01D000F065F900BF80BD00BF9B
:10071000600E00200038014080B582B000AF0C4B65
:100720009B6C0B4A43F001039364094B9B6C03F0F1
:1007300001037B607B68002200210F2000F013FC86
:100740000F2000F02CFC00BF0837BD4680BD00BF65
:100750000010024080B485B000AF154BDB6C144A2A
:1007600043F00403D364124BDB6C03F00403FB601F
:10077000FB680F4BDB6C0E4A43F00103D3640C4B58
:10078000DB6C03F00103BB60BB68094BDB6C084A00
:1007900043F00203D364064BDB6C03F002037B607F
:1007A0007B6800BF1437BD465DF8047B704700BF0F
:1007B0000010024080B584B000AF78600F49104847
:1007C00000F0E4F80F490E4800F078F82B210D48AE
:1007D00000F0ACF8F8600C4AFB6852F82330194678
:1007E0000A4806F0BBFBC82301220949094802F068
:1007F0000BFC00BF1037BD4680BD00BF2C0F002092
:10080000041B0020484A002004000020C87F000884
:1008100000000020600E002080B584B000AFF860BA
:10082000B9607A607B689AB24FF0FF33B9680448C8
:1008300002F0EAFB7B6818461037BD4680BD00BF5A
:10084000600E002080B582B000AF174B3B603B4686
:1008500000221946154803F037FD03467B603B79BB
:10086000002B0AD03B7919467B68C3F317231A463D
:100870000F4806F073FB00F0ADF80C4B1B6800212D
:10088000184603F095FD03460A4A1360074B1B68A0
:100890000021184603F0A6FD0346074A136000BF77
:1008A0000837BD4680BD00BFF44A0020001B002071
:1008B000D07F0008F04A0120F44A012080B584B0BE
:1008C00000AF78603960154B1B687A685A60144B2A
:1008D0001B683A685A60134B1B68104A1168104A2B
:1008E0001268184603F0D4FDF860FB68012B11D0A4
:1008F0000C4B1B68184603F0C5FC0346BB603B7AF3
:100900001946BB68C3F317231A46074806F026FBAF
:1009100000F060F800BF1037BD4680BDF04A0120EE
:10092000F44A0120001B0020FC7F000880B487B03F
:1009300000AF786039607B681B687B6100233B6196
:100940000123FB6017E0FB689B007A681344D3ED3A
:10095000007A97ED057AB4EEE77AF1EE10FA07D552
:10096000FB689B007A6813441B687B61FB683B61F2
:10097000FB680133FB60FA683B689A42E3D33B694A
:1009800018461C37BD465DF8047B704780B485B0BF
:1009900000AF786039600023FB6010E0FB683A68C4
:1009A00013441978FB689B007A68134407EE901A89
:1009B000F8EE677AC3ED007AFB680133FB60FB68F1
:1009C000B3F53D6FEADD00BF00BF1437BD465DF8EB
:1009D000047B704780B400AF72B600BFFEE7000032
:1009E00080B483B000AF0F4B1B6E0E4A43F001037F
:1009F00013660C4B1B6E03F001037B607B68094B95
:100A00009B6D084A43F080539365064B9B6D03F042
:100A100080533B603B6800BF0C37BD465DF8047BEC
:100A2000704700BF0010024080B485B000AF78600E
:100A30007B681B680A4A93420BD10A4B9B6C094A9C
:100A400043F480539364074B9B6C03F48053FB6027
:100A5000FB6800BF1437BD465DF8047B704700BFDC
:100A6000003002400010024080B5ACB000AF7860AA
:100A700007F19C0300221A605A609A60DA601A61DA
:100A800007F1140388220021184606F07FF97B68DD
:100A90001B68354A934263D101237B610023FB64C9
:100AA00007F11403184601F095FD0346002B01D011
:100AB000FFF790FF2D4B1B6E2C4A43F480431366C7
:100AC0002A4B1B6E03F480433B613B69274BDB6C75
:100AD000264A43F00203D364244BDB6C03F0020389
:100AE000FB60FB68C023C7F89C300223C7F8A03026
:100AF0000023C7F8A4300323C7F8A8300723C7F89A
:100B0000AC3007F19C031946194800F045FD194B1C
:100B1000194A1A60174B02225A60164B00229A603B
:100B2000144B0022DA60134B80221A61114B002211
:100B30005A61104B00229A610E4B2022DA610D4B54
:100B400000221A620B4800F02FFB0346002B01D055
:100B5000FFF740FF7B68074A1A67064A7B68936283
:100B600000BFB037BD4680BD0038014000100240D4
:100B700000040048E40E00205800024080B400AF9A
:100B8000FEE780B400AFFEE780B400AFFEE780B4BC
:100B900000AFFEE780B400AFFEE780B400AF00BF57
:100BA000BD465DF8047B704780B400AF00BFBD4612
:100BB0005DF8047B704780B400AF00BFBD465DF8B0
:100BC000047B704780B500AF00F0D2F800BF80BD55
:100BD00080B500AF024800F0FFFB00BF80BD00BF42
:100BE000E40E002080B586B000AF7860144A154B43
:100BF000D31A7B617B693B61134B1B68002B02D1CD
:100C0000114B124A1A60104B1A687B6813443A69F8
:100C10009A4207D206F090F803460C221A604FF071
:100C2000FF3309E0084B1B68FB60074B1A687B68C1
:100C30001344054A1360FB6818461837BD4680BD4B
:100C40000080012000080000F84A0120104C01201B
:100C500080B400AF064BD3F88830054A43F47003E4
:100C6000C2F8883000BFBD465DF8047B704700BF06
:100C700000ED00E0DFF834D0FFF7EAFF0C480D4943
:100C80000D4A002302E0D458C4500433C4188C42E7
:100C9000F9D30A4A0A4C002301E013600432A2424D
:100CA000FBD306F04FF8FFF765FCFEE7008001205C
:100CB00000000020200E0020C03B0D08200E002068
:100CC0000C4C0120FEE780B582B000AF0023FB7121
:100CD000032000F03DF9002000F00EF80346002B41
:100CE00002D00123FB7101E0FFF77AFEFB79184681
:100CF0000837BD4680BD000080B584B000AF786085
:100D00000023FB73174B1B78002B23D0164B1A685C
:100D1000144B1B7819464FF47A73B3FBF1F3B2FB13
:100D2000F3F3184600F049F90346002B0FD17B6816
:100D30000F2B09D8002279684FF0FF3000F013F92B
:100D40000A4A7B68136007E00123FB7304E0012378
:100D5000FB7301E00123FB73FB7B18461037BD4694
:100D600080BD00BFB8000020B0000020B40000200B
:100D700080B400AF064B1B781A46064B1B68134421
:100D8000044A136000BFBD465DF8047B704700BF96
:100D9000B8000020FC4A012080B400AF034B1B6860
:100DA0001846BD465DF8047B704700BFFC4A012031
:100DB00080B485B000AF78607B6803F00703FB6008
:100DC0000C4BDB68BB60BA684FF6FF031340BB6097
:100DD000FB681A02BB68134343F0BF6343F400335C
:100DE000BB60044ABB68D36000BF1437BD465DF8E2
:100DF000047B704700ED00E080B400AF044BDB687B
:100E00001B0A03F007031846BD465DF8047B7047D4
:100E100000ED00E080B483B000AF0346FB7197F9AA
:100E20000730002B0BDBFB7903F01F02074997F912
:100E300007305B09012000FA02F241F8232000BFCD
:100E40000C37BD465DF8047B704700BF00E100E051
:100E500080B483B000AF03463960FB7197F9073067
:100E6000002B0ADB3B68DAB20C4997F90730120114
:100E7000D2B20B4483F800230AE03B68DAB2084997
:100E8000FB7903F00F03043B1201D2B20B441A7634
:100E900000BF0C37BD465DF8047B704700E100E001
:100EA00000ED00E080B489B000AFF860B9607A600E
:100EB000FB6803F00703FB61FB69C3F10703042B25
:100EC00028BF0423BB61FB690433062B02D9FB69ED
:100ED000033B00E000237B614FF0FF32BB6902FA65
:100EE00003F3DA43BB681A407B699A404FF0FF3145
:100EF0007B6901FA03F3D9437B680B40134318461F
:100F00002437BD465DF8047B7047000080B582B091
:100F100000AF78607B68013BB3F1807F01D3012390
:100F20000FE00A4A7B68013B53600F214FF0FF300E
:100F3000FFF78EFF054B00229A60044B07221A60D0
:100F4000002318460837BD4680BD00BF10E000E012
:100F500080B582B000AF78607868FFF729FF00BFE6
:100F60000837BD4680BD80B586B000AF0346B96086
:100F70007A60FB7300237B61FFF73EFF78617A683C
:100F8000B9687869FFF78EFF024697F90F3011466E
:100F90001846FFF75DFF00BF1837BD4680BD80B51E
:100FA00082B000AF0346FB7197F907301846FFF790
:100FB00031FF00BF0837BD4680BD80B582B000AFAD
:100FC00078607868FFF7A2FF034618460837BD46E9
:100FD00080BD000080B582B000AF78607B68002BD8
:100FE00001D1012354E07B685B7FDBB2002B05D18C
:100FF0007B6800221A777868FFF716FD7B6802226B
:101000005A777B681B79002B0CD17B681B68224ABE
:101010005A617B681B689A687B681B6822F018021B
:101020009A600CE07B6899687B68DB681A46786890
:1010300000F034F80346002B01D0012328E07B6840
:101040005B79002B05D17B681B684FF0FF321A617A
:1010500004E07B681B687A6812691A617B681B6808
:101060009B6823F060017B685A697B681B680A43B0
:101070009A607B681B689B6823F080017B689A6993
:101080007B681B680A439A607B6801225A770023B9
:1010900018460837BD4680BDB71DC10480B487B06F
:1010A00000AFF860B9607A600023FB751F233B61D5
:1010B00000BF3B695A1E3A61002B09D03B6903F01F
:1010C0001F03BA6822FA03F303F00103002BF0D0E8
:1010D0007B68182B46D801A252F823F06B11000848
:1010E0006511000865110008651100086511000808
:1010F0006511000865110008651100085911000804
:1011000065110008651100086511000865110008E7
:101110006511000865110008651100084D110008EF
:1011200065110008651100086511000865110008C7
:1011300065110008651100086511000841110008DB
:101140003B69062B13D90123FB7510E03B69072B84
:101150000FD90123FB750CE03B690F2B0BD9012341
:10116000FB7508E00123FB7506E000BF04E000BF4B
:1011700002E000BF00E000BFFB7D002B0DD1FB684B
:101180001B68BA685A61FB681B689B6823F01801EA
:10119000FB681B687A680A439A60FB7D18461C3717
:1011A000BD465DF8047B704780B485B000AF7860C1
:1011B0007B68002B01D1012398E07B681B681A46ED
:1011C0004D4B9A420FD87B681B681A464B4B134411
:1011D0004B4AA2FB03231B099A007B685A647B6875
:1011E000484A1A640EE07B681B681A46464B134453
:1011F000434AA2FB03231B099A007B685A647B685D
:10120000424A1A647B68022283F825207B681B68A7
:101210001B68FB60FB6823F4FF4323F07003FB6053
:101220007B689A687B68DB681A437B681B691A4392
:101230007B685B691A437B689B691A437B68DB693F
:101240001A437B681B6A1343FA681343FB607B688D
:101250001B68FA681A607B689B68B3F5804F39D0C9
:101260007B681B6C274A93421AD1294B1A687B680A
:101270005B6C03F01C030F2101FA03F3DB432449E9
:1012800013400B60224B1A687B6859687B685B6C63
:1012900003F01C0301FA03F31D4913430B6019E02B
:1012A0001C4B1A687B685B6C03F01C030F2101FA6E
:1012B00003F3DB43174913400B60164B1A687B6836
:1012C00059687B685B6C03F01C0301FA03F3114956
:1012D00013430B607B680022DA637B68012283F88A
:1012E00025207B68002283F8242000231846143729
:1012F000BD465DF8047B704707040240F8FFFDBF60
:10130000CDCCCCCC00000240F8FBFDBF0004024075
:10131000A8000240A804024080B586B000AFF86083
:10132000B9607A603B600023FB75FB6893F824305A
:10133000012B01D102234BE0FB68012283F824201A
:10134000FB6893F82530DBB2012B3AD1FB6802220F
:1013500083F82520FB680022DA63FB681B681A68A3
:10136000FB681B6822F001021A603B687A68B96862
:10137000F86800F0E0F8FB681B6B002B08D0FB68F6
:101380001B681A68FB681B6842F00E021A600FE0C7
:10139000FB681B681A68FB681B6822F004021A606D
:1013A000FB681B681A68FB681B6842F00A021A6037
:1013B000FB681B681A68FB681B6842F001021A6030
:1013C00005E0FB68002283F824200223FB75FB7DE7
:1013D00018461837BD4680BD80B584B000AF786030
:1013E0007B681B6C1B68FB607B681B681B68BB60B1
:1013F0007B685B6C03F01C0304229A40FB6813407B
:10140000002B26D0BB6803F00403002B21D07B689F
:101410001B681B6803F02003002B07D17B681B6847
:101420001A687B681B6822F004021A607B685B6C98
:1014300003F01C027B681B6C042101FA02F25A6063
:101440007B681B6B002B71D07B681B6B786898479F
:101450006CE07B685B6C03F01C0302229A40FB6823
:101460001340002B2ED0BB6803F00203002B29D0C1
:101470007B681B681B6803F02003002B0BD17B6883
:101480001B681A687B681B6822F00A021A607B6876
:10149000012283F825207B685B6C03F01C027B68CB
:1014A0001B6C022101FA02F25A607B68002283F869
:1014B00024207B68DB6A002B38D07B68DB6A786885
:1014C000984733E07B685B6C03F01C0308229A406A
:1014D000FB681340002B2AD0BB6803F00803002BE5
:1014E00025D07B681B681A687B681B6822F00E0297
:1014F0001A607B685B6C03F01C027B681B6C01212B
:1015000001FA02F25A607B680122DA637B680122E9
:1015100083F825207B68002283F824207B685B6B9E
:10152000002B04D07B685B6B7868984700BF00BFD6
:101530001037BD4680BD80B485B000AFF860B9609B
:101540007A603B60FB685B6C03F01C02FB681B6C01
:10155000012101FA02F25A60FB681B683A685A607E
:10156000FB689B68102B08D1FB681B687A689A603F
:10157000FB681B68BA68DA6007E0FB681B68BA683A
:101580009A60FB681B687A68DA6000BF1437BD4652
:101590005DF8047B7047000080B487B000AF7860CE
:1015A000396000237B617FE13B681A6801217B6918
:1015B00001FA03F31340FB60FB68002B00F071811C
:1015C0003B685B6803F00303012B05D03B685B6855
:1015D00003F00303022B30D17B689B683B617B697E
:1015E0005B00032202FA03F3DB433A6913403B61D9
:1015F0003B68DA687B695B0002FA03F33A691343DC
:101600003B617B683A699A607B685B683B61012259
:101610007B6902FA03F3DB433A6913403B613B68A1
:101620005B681B0903F001027B6902FA03F33A6964
:1016300013433B617B683A695A603B685B6803F01F
:101640000303032B18D17B68DB6A3B6101227B69B2
:1016500002FA03F3DB433A6913403B613B685B6882
:10166000DB0803F001027B6902FA03F33A691343D2
:101670003B617B683A69DA623B685B6803F00303AD
:10168000032B17D07B68DB683B617B695B0003221F
:1016900002FA03F3DB433A6913403B613B689A6803
:1016A0007B695B0002FA03F33A6913433B617B6891
:1016B0003A69DA603B685B6803F00303022B23D1CD
:1016C0007B69DA087B68083253F822303B617B691A
:1016D00003F007039B000F2202FA03F3DB433A698E
:1016E00013403B613B681A697B6903F007039B0069
:1016F00002FA03F33A6913433B617B69DA087B68BA
:101700000832396943F822107B681B683B617B69AA
:101710005B00032202FA03F3DB433A6913403B61A7
:101720003B685B6803F003027B695B0002FA03F32A
:101730003A6913433B617B683A691A603B685B68AE
:1017400003F44033002B00F0AC805F4B1B6E5E4A0D
:1017500043F0010313665C4B1B6E03F00103BB6097
:10176000BB685A4A7B699B08023352F823303B61BD
:101770007B6903F003039B000F2202FA03F3DB43B0
:101780003A6913403B617B68B3F1904F25D07B6889
:101790004F4A93421FD07B684E4A934219D07B68D0
:1017A0004D4A934213D07B684C4A93420DD07B68DC
:1017B0004B4A934207D07B684A4A934201D10623A1
:1017C0000CE007230AE0052308E0042306E00323D6
:1017D00004E0022302E0012300E000237A6902F022
:1017E0000302920093403A6913433B6137497B6996
:1017F0009B0802333A6941F823203B4B9B683B61CD
:10180000FB68DB433A6913403B613B685B6803F468
:101810008013002B03D03A69FB6813433B61324AC3
:101820003B699360304BDB683B61FB68DB433A69A3
:1018300013403B613B685B6803F40013002B03D04B
:101840003A69FB6813433B61274A3B69D360264BE7
:101850005B683B61FB68DB433A6913403B613B6873
:101860005B6803F40033002B03D03A69FB68134331
:101870003B611D4A3B6953601B4B1B683B61FB6826
:10188000DB433A6913403B613B685B6803F4803398
:10189000002B03D03A69FB6813433B61124A3B6952
:1018A00013607B6901337B613B681A687B6922FAAC
:1018B00003F3002B7FF478AE00BF00BF1C37BD469A
:1018C0005DF8047B704700BF00100240000001403B
:1018D0000004004800080048000C004800100048C0
:1018E00000140048001800480004014080B400AF14
:1018F000054B1B68044A43F48073136000BFBD4668
:101900005DF8047B704700BF0070004080B400AFFA
:10191000044B1B6803F4C0631846BD465DF8047BA6
:10192000704700BF0070004080B485B000AF7860A1
:101930007B68B3F5007F30D1234B1B6803F4C06391
:10194000B3F5007F38D0204B1B6823F4C0631E4AD8
:1019500043F4007313601D4B1B68322202FB03F338
:101960001B4AA2FB03239B0C0133FB6002E0FB68D4
:10197000013BFB60144B5B6903F48063B3F5806F3C
:1019800002D1FB68002BF2D10F4B5B6903F480633B
:10199000B3F5806F10D103230FE00B4B1B6803F4EA
:1019A000C063B3F5806F07D0074B1B6823F4C06397
:1019B000054A43F480631360002318461437BD467C
:1019C0005DF8047B704700BF00700040B00000204D
:1019D00083DE1B4380B588B000AF78607B68002B46
:1019E00001D10123CAE3974B9B6803F00C03BB6151
:1019F000944BDB6803F003037B617B681B6803F097
:101A00001003002B00F0E480BB69002B07D0BB69FA
:101A10000C2B40F08B807B69012B40F08780894B39
:101A20001B6803F00203002B05D07B689B69002B29
:101A300001D10123A2E37B681A6A824B1B6803F081
:101A40000803002B04D07F4B1B6803F0F00305E074
:101A50007C4BD3F894301B0903F0F003934223D25C
:101A60007B681B6A184600F055FD0346002B01D029
:101A7000012383E3734B1B68724A43F0080313602E
:101A8000704B1B6823F0F0027B681B6A6D4913439F
:101A90000B606C4B5B6823F47F427B68DB691B0245
:101AA000684913434B6025E0664B1B68654A43F069
:101AB00008031360634B1B6823F0F0027B681B6A0A
:101AC000604913430B605F4B5B6823F47F427B6884
:101AD000DB691B025B4913434B60BB69002B09D1D7
:101AE0007B681B6A184600F015FD0346002B01D0E9
:101AF000012343E300F04AFC0246524B9B681B095A
:101B000003F00F035049CB5C03F01F0322FA03F3E9
:101B10004E4A13604E4B1B681846FFF7EDF803461C
:101B2000FB73FB7B002B52D0FB7B27E37B689B691D
:101B3000002B32D0434B1B68424A43F00103136031
:101B4000FFF72AF9386108E0FFF726F902463B69FA
:101B5000D31A022B01D9032310E33A4B1B6803F07D
:101B60000203002BF0D0374B1B68364A43F00803C2
:101B70001360344B1B6823F0F0027B681B6A314909
:101B800013430B602F4B5B6823F47F427B68DB6958
:101B90001B022C4913434B601AE02A4B1B68294A4D
:101BA00023F001031360FFF7F7F8386108E0FFF74F
:101BB000F3F802463B69D31A022B01D90323DDE275
:101BC000204B1B6803F00203002BF0D100E000BFA4
:101BD0007B681B6803F00103002B74D0BB69082BE2
:101BE00005D0BB690C2B0ED17B69032B0BD1154B98
:101BF0001B6803F40033002B64D07B685B68002B08
:101C000060D10123BAE27B685B68B3F5803F06D1FF
:101C10000C4B1B680B4A43F48033136026E07B684F
:101C20005B68B3F5A02F15D1064B1B68054A43F43A
:101C300080231360034B1B68024A43F48033136014
:101C400014E000BF0010024058800008B0000020DF
:101C5000B4000020A04B1B689F4A23F4803313601C
:101C60009D4B1B689C4A23F4802313607B685B6850
:101C7000002B13D0FFF790F8386108E0FFF78CF8DD
:101C800002463B69D31A642B01D9032376E2924BB7
:101C90001B6803F40033002BF0D014E0FFF77CF84E
:101CA000386108E0FFF778F802463B69D31A642BE5
:101CB00001D9032362E2884B1B6803F40033002B35
:101CC000F0D100E000BF7B681B6803F00203002B2B
:101CD00060D0BB69042B05D0BB690C2B19D17B6983
:101CE000022B16D17C4B1B6803F48063002B05D0BC
:101CF0007B68DB68002B01D101233FE2764B5B68F8
:101D000023F0F8527B681B691B06734913434B6031
:101D100040E07B68DB68002B23D06F4B1B686E4A6A
:101D200043F480731360FFF737F8386108E0FFF77A
:101D300033F802463B69D31A022B01D903231DE273
:101D4000654B1B6803F48063002BF0D0624B5B682B
:101D500023F0F8527B681B691B065F4913434B60F5
:101D600018E05D4B1B685C4A23F480731360FFF737
:101D700013F8386108E0FFF70FF802463B69D31A01
:101D8000022B01D90323F9E1534B1B6803F4806351
:101D9000002BF0D17B681B6803F00803002B3CD0BC
:101DA0007B685B69002B1CD04B4BD3F894304A4ABC
:101DB00043F00103C2F89430FEF7EEFF386108E00B
:101DC000FEF7EAFF02463B69D31A022B01D903232F
:101DD000D4E1414BD3F8943003F00203002BEFD051
:101DE0001BE03D4BD3F894303B4A23F00103C2F88B
:101DF0009430FEF7D1FF386108E0FEF7CDFF0246D0
:101E00003B69D31A022B01D90323B7E1324BD3F834
:101E1000943003F00203002BEFD17B681B6803F0C2
:101E20000403002B00F0A6800023FB772A4B9B6D58
:101E300003F08053002B0DD1274B9B6D264A43F0B6
:101E400080539365244B9B6D03F08053BB60BB684C
:101E50000123FB77214B1B6803F48073002B18D1FF
:101E60001E4B1B681D4A43F480731360FEF794FFFA
:101E7000386108E0FEF790FF02463B69D31A022B57
:101E800001D903237AE1154B1B6803F48073002BFF
:101E9000F0D07B689B68012B08D10F4BD3F89030B2
:101EA0000D4A43F00103C2F8903029E07B689B683B
:101EB000052B15D1084BD3F89030074A43F00403A3
:101EC000C2F89030044BD3F89030034A43F001033A
:101ED000C2F8903014E000BF0010024000700040D3
:101EE0009C4BD3F890309B4A23F00103C2F890300A
:101EF000984BD3F89030974A23F00403C2F89030FF
:101F00007B689B68002B16D0FEF746FF38610AE01D
:101F1000FEF742FF02463B69D31A41F288329342F0
:101F200001D903232AE18B4BD3F8903003F002034D
:101F3000002BEDD015E0FEF72FFF38610AE0FEF729
:101F40002BFF02463B69D31A41F28832934201D9F2
:101F5000032313E17F4BD3F8903003F00203002BEF
:101F6000EDD1FB7F012B05D17A4B9B6D794A23F094
:101F7000805393657B689B6A002B00F0FE807B6832
:101F80009B6A022B40F0D080724BDB687B617B69DF
:101F900003F003027B68DB6A9A4230D17B6903F06D
:101FA00070027B681B6B013B1B019A4227D17B6946
:101FB00003F4FE427B685B6B1B029A421FD17B6974
:101FC00003F400337A68926B072A14BF01220022BF
:101FD000D2B2934213D17B6903F4C0027B68DB6BFE
:101FE0005B08013B5B059A4209D17B6903F0C06243
:101FF0007B681B6C5B08013B5B069A426ED0BB6939
:102000000C2B69D0534B1B6803F08063002B05D168
:10201000504B1B6803F08053002B01D00123ADE02F
:102020004C4B1B684B4A23F080731360FEF7B4FEE1
:10203000386108E0FEF7B0FE02463B69D31A022B76
:1020400001D903239AE0434B1B6803F00073002B74
:10205000F0D1404BDA68404B13407A68D16A7A6815
:10206000126B013A120111437A68526B120211434A
:102070007A68D26B5208013A520511437A68126CA1
:102080005208013A520611437A68926B12095204BF
:102090000A4330491343CB602E4B1B682D4A43F053
:1020A000807313602B4BDB682A4A43F08073D36044
:1020B000FEF772FE386108E0FEF76EFE02463B69ED
:1020C000D31A022B01D9032358E0224B1B6803F0DB
:1020D0000073002BF0D050E001234FE01D4B1B6834
:1020E00003F00073002B48D11A4B1B68194A43F0C8
:1020F00080731360174BDB68164A43F08073D3601C
:10210000FEF74AFE386108E0FEF746FE02463B69EC
:10211000D31A022B01D9032330E00E4B1B6803F0C6
:102120000073002BF0D028E0BB690C2B23D0094BA7
:102130001B68084A23F080731360FEF72DFE386198
:102140000CE0FEF729FE02463B69D31A022B05D9A3
:10215000032313E0001002408C809DF9094B1B689B
:1021600003F00073002BECD1064BDA680549064BEF
:102170001340CB6001E0012300E000231846203724
:10218000BD4680BD00100240FCFFEEFE80B584B06D
:1021900000AF786039607B68002B01D10123E7E054
:1021A000754B1B6803F007033A689A4210D9724BCB
:1021B0001B6823F0070270493B6813430B606E4BAA
:1021C0001B6803F007033A689A4201D00123CFE06D
:1021D0007B681B6803F00203002B10D07B689A68B1
:1021E000664B9B6803F0F0039A4208D9634B9B68E7
:1021F00023F0F0027B689B68604913438B607B6827
:102200001B6803F00103002B4CD07B685B68032B39
:1022100007D15A4B1B6803F00073002B21D1012317
:10222000A6E07B685B68022B07D1544B1B6803F464
:102230000033002B15D101239AE07B685B68002BEB
:1022400007D14E4B1B6803F00203002B09D1012379
:102250008EE04A4B1B6803F48063002B01D10123FD
:1022600086E0464B9B6823F003027B685B6843492A
:1022700013438B60FEF790FDF8600AE0FEF78CFDDB
:102280000246FB68D31A41F28832934201D90323F4
:102290006EE03A4B9B6803F00C027B685B689B0026
:1022A0009A42EBD17B681B6803F00203002B10D02D
:1022B0007B689A68314B9B6803F0F0039A4208D21E
:1022C0002E4B9B6823F0F0027B689B682B491343DD
:1022D0008B60294B1B6803F007033A689A4210D2BF
:1022E000254B1B6823F0070223493B6813430B600F
:1022F000214B1B6803F007033A689A4201D001237F
:1023000036E07B681B6803F00403002B08D01B4BEE
:102310009B6823F4E0627B68DB68184913438B6099
:102320007B681B6803F00803002B09D0134B9B68E4
:1023300023F460527B681B69DB00104913438B60F8
:1023400000F024F802460D4B9B681B0903F00F03B5
:102350000B49CB5C03F01F0322FA03F3094A136015
:10236000094B1B681846FEF7C7FC0346FB72FB7A55
:1023700018461037BD4680BD0020024000100240C4
:1023800058800008B0000020B400002080B489B05C
:1023900000AF0023FB610023BB613E4B9B6803F051
:1023A0000C033B613B4BDB6803F00303FB603B69C1
:1023B000002B05D03B690C2B21D1FB68012B1ED1D2
:1023C000344B1B6803F00803002B07D1314BD3F8C3
:1023D00094301B0A03F00F03FB6105E02D4B1B68D3
:1023E0001B0903F00F03FB612B4AFB6952F82330F2
:1023F000FB613B69002B0DD1FB69BB610AE03B69C6
:10240000042B02D1254BBB6104E03B69082B01D1B1
:10241000234BBB613B690C2B34D11E4BDB6803F0B3
:102420000303BB60BB68022B03D0BB68032B03D044
:1024300005E01A4B7B6105E0194B7B6102E0FB690B
:102440007B6100BF134BDB681B0903F007030133FB
:102450007B60104BDB681B0A03F07F037A6903FB88
:1024600002F27B68B2FBF3F37B610A4BDB685B0E25
:1024700003F0030301335B003B607A693B68B2FB06
:10248000F3F3BB61BB6918462437BD465DF8047B96
:10249000704700BF00100240708000080024F40064
:1024A00000127A0080B400AF034B1B681846BD468B
:1024B0005DF8047B704700BFB000002080B500AF1E
:1024C000FFF7F0FF0246064B9B681B0A03F0070369
:1024D0000449CB5C03F01F0322FA03F3184680BDC6
:1024E000001002406880000880B500AFFFF7DAFFF7
:1024F0000246064B9B68DB0A03F007030449CB5CEA
:1025000003F01F0322FA03F3184680BD00100240B7
:102510006880000880B586B000AF786000233B611A
:102520002A4B9B6D03F08053002B03D0FFF7EEF98D
:10253000786114E0254B9B6D244A43F080539365EA
:10254000224B9B6D03F08053FB60FB68FFF7DEF9C5
:1025500078611E4B9B6D1D4A23F0805393657B6908
:10256000B3F5007F0BD17B68802B19D97B68A02B3A
:1025700002D902233B6113E001233B6110E07B6839
:10258000802B02D903233B610AE07B68802B02D1B8
:1025900002233B6104E07B68702B01D101233B6186
:1025A0000B4B1B6823F0070209493B6913430B607F
:1025B000074B1B6803F007033A699A4201D00123D5
:1025C00000E0002318461837BD4680BD00100240C9
:1025D0000020024080B586B000AF78600023FB7415
:1025E0000023BB747B681B6803F40063002B41D09D
:1025F0007B685B6EB3F5400F2AD0B3F5400F24D84B
:10260000B3F5000F08D0B3F5000F1ED8002B0AD089
:10261000B3F5800F10D018E0864BDB68854A43F491
:102620008033D36015E07B6804330021184600F046
:10263000CBFA0346FB740CE07B682033002118467C
:1026400000F0B6FB0346FB7403E00123FB7400E0DB
:1026500000BFFB7C002B0BD1764BD3F8883023F4E2
:1026600040027B685B6E73491343C1F8883001E018
:10267000FB7CBB747B681B6803F48053002B41D048
:102680007B689B6EB3F1407F2AD0B3F1407F24D8A2
:10269000B3F1007F08D0B3F1007F1ED8002B0AD021
:1026A000B3F1807F10D018E0624BDB68614A43F4DD
:1026B0008033D36015E07B6804330021184600F0B6
:1026C00083FA0346FB740CE07B6820330021184634
:1026D00000F06EFB0346FB7403E00123FB7400E093
:1026E00000BFFB7C002B0BD1524BD3F8883023F07A
:1026F00040727B689B6E4F491343C1F8883001E0FC
:10270000FB7CBB747B681B6803F40033002B00F078
:10271000A08000237B74474B9B6D03F08053002BFC
:1027200001D1012300E00023002B0DD0414B9B6D14
:10273000404A43F0805393653E4B9B6D03F08053BA
:10274000BB60BB6801237B743B4B1B683A4A43F474
:1027500080731360FEF720FBF86009E0FEF71CFBB6
:102760000246FB68D31A022B02D90323FB7405E04F
:10277000314B1B6803F48073002BEFD0FB7C002BE4
:102780005CD12C4BD3F8903003F440737B617B69B0
:10279000002B1FD07B68D3F884307A699A4219D015
:1027A000244BD3F8903023F440737B61214BD3F852
:1027B0009030204A43F48033C2F890301D4BD3F858
:1027C00090301C4A23F48033C2F89030194A7B6958
:1027D000C2F890307B6903F00103002B16D0FEF79E
:1027E000DBFAF8600BE0FEF7D7FA0246FB68D31A73
:1027F00041F28832934202D90323FB7406E00D4B69
:10280000D3F8903003F00203002BECD0FB7C002BBC
:102810000CD1084BD3F8903023F440727B68D3F886
:10282000843004491343C1F8903009E0FB7CBB7449
:1028300006E000BF0010024000700040FB7CBB744B
:102840007B7C012B05D19E4B9B6D9D4A23F08053D1
:1028500093657B681B6803F00103002B0AD0984B3B
:10286000D3F8883023F003027B689B6B94491343B1
:10287000C1F888307B681B6803F00203002B0AD084
:102880008F4BD3F8883023F00C027B68DB6B8C49CC
:102890001343C1F888307B681B6803F00403002BE6
:1028A0000AD0874BD3F8883023F030027B681B6C4A
:1028B00083491343C1F888307B681B6803F0080321
:1028C000002B0AD07E4BD3F8883023F0C0027B68FF
:1028D0005B6C7B491343C1F888307B681B6803F04D
:1028E0001003002B0AD0764BD3F8883023F44072C3
:1028F0007B689B6C72491343C1F888307B681B6806
:1029000003F02003002B0AD06D4BD3F8883023F45A
:1029100040627B68DB6C6A491343C1F888307B688E
:102920001B6803F40073002B0AD0654BD3F8883082
:1029300023F440227B68DB6D61491343C1F8883082
:102940007B681B6803F48063002B0AD05C4BD3F8D0
:10295000883023F440127B681B6E59491343C1F839
:1029600088307B681B6803F04003002B0AD0544B6F
:10297000D3F8883023F440527B681B6D50491343D1
:10298000C1F888307B681B6803F08003002B0AD0F5
:102990004B4BD3F8883023F440427B685B6D484949
:1029A0001343C1F888307B681B6803F48073002BE5
:1029B0000AD0434BD3F8883023F440327B689B6DB8
:1029C0003F491343C1F888307B681B6803F4005308
:1029D000002B28D03A4BD3F8883023F040627B6834
:1029E000DB6E37491343C1F888307B68DB6EB3F187
:1029F000006F06D1324BDB68314A43F48013D36059
:102A000011E07B68DB6EB3F1806F0CD17B6804331F
:102A10000121184600F0D8F80346FB74FB7C002B1C
:102A200001D0FB7CBB747B681B6803F40023002B84
:102A300028D0234BD3F8883023F040627B681B6F8B
:102A40001F491343C1F888307B681B6FB3F1006FD7
:102A500006D11B4BDB681A4A43F48013D36011E0A4
:102A60007B681B6FB3F1806F0CD17B68043301214D
:102A7000184600F0A9F80346FB74FB7C002B01D03C
:102A8000FB7CBB747B681B6803F48023002B2BD07A
:102A90000B4BD3F8883023F040627B685B6F0849AA
:102AA0001343C1F888307B685B6FB3F1006F09D1C5
:102AB000034BDB68024A43F48013D36014E000BF89
:102AC000001002407B685B6FB3F1806F0CD17B68B4
:102AD00004330121184600F077F80346FB74FB7CB1
:102AE000002B01D0FB7CBB747B681B6803F4804324
:102AF000002B2FD02B4BD3F8883023F040527B682B
:102B00009B6F28491343C1F888307B689B6FB3F1F2
:102B1000805F0DD17B6804330221184600F054F821
:102B20000346FB74FB7C002B14D0FB7CBB7411E0D0
:102B30007B689B6FB3F1005F0CD17B68203302216F
:102B4000184600F035F90346FB74FB7C002B01D0DE
:102B5000FB7CBB747B681B6803F40043002B0AD02A
:102B6000104BD3F8883023F080427B68DB6F0D492F
:102B70001343C1F888307B681B6803F48033002B53
:102B80000BD0084BD3F8883023F000427B68D3F891
:102B9000803004491343C1F88830BB7C184618378D
:102BA000BD4680BD0010024080B400AF054B1B68DD
:102BB000044A43F00403136000BFBD465DF8047B84
:102BC000704700BF0010024080B584B000AF78604D
:102BD00039600023FB73754BDB6803F00303002BA4
:102BE00018D0724BDB6803F003027B681B689A42C3
:102BF0000DD17B681B68002B09D06C4BDB681B096F
:102C000003F007035A1C7B685B689A4247D0012394
:102C1000FB7344E07B681B68032B18D0032B25D87B
:102C2000012B02D0022B09D020E0604B1B6803F07F
:102C30000203002B1DD10123FB731AE05B4B1B68C1
:102C400003F48063002B16D10123FB7313E0574B71
:102C50001B6803F40033002B0FD1544B1B6803F4A3
:102C60008023002B09D10123FB7306E00123FB73B2
:102C700004E000BF02E000BF00E000BFFB7B002BD0
:102C80000DD14A4BDB6823F073027B6819687B68BF
:102C90005B68013B1B010B4344491343CB60FB7B47
:102CA000002B7DD1414B1B68404A23F080631360A9
:102CB000FEF772F8B86009E0FEF76EF80246BB68EE
:102CC000D31A022B02D90323FB7305E0374B1B6891
:102CD00003F00063002BEFD1FB7B002B60D13B683E
:102CE000002B11D1314B1B6923F41F3323F44073A4
:102CF0007A68926811027A68D268120952040A430B
:102D00002A4913430B6127E03B68012B12D1274B63
:102D10001B6923F4C00323F4FE437A68926811020E
:102D20007A6812695208013A52050A431F4913434F
:102D30000B6111E01D4B1B6923F0C06323F4FE43BC
:102D40007A68926811027A6852695208013A52060A
:102D50000A43164913430B61144B1B68134A43F093
:102D600080631360FEF718F8B86009E0FEF714F806
:102D70000246BB68D31A022B02D90323FB7305E07A
:102D80000A4B1B6803F00063002BEFD0FB7B002B8A
:102D900006D1064B1A697B689B69044913430B6192
:102DA000FB7B18461037BD4680BD00BF00100240B7
:102DB00080B584B000AF786039600023FB736A4B44
:102DC000DB6803F00303002B18D0674BDB6803F0CC
:102DD00003027B681B689A420DD17B681B68002B3D
:102DE00009D0614BDB681B0903F007035A1C7B68A1
:102DF0005B689A4247D00123FB7344E07B681B6801
:102E0000032B18D0032B25D8012B02D0022B09D07D
:102E100020E0554B1B6803F00203002B1DD101235A
:102E2000FB731AE0504B1B6803F48063002B16D130
:102E30000123FB7313E04C4B1B6803F40033002B9E
:102E40000FD1494B1B6803F48023002B09D10123C8
:102E5000FB7306E00123FB7304E000BF02E000BF48
:102E600000E000BFFB7B002B0DD13F4BDB6823F064
:102E700073027B6819687B685B68013B1B010B432D
:102E800039491343CB60FB7B002B67D1364B1B6862
:102E9000354A23F080531360FDF77EFFB86009E0E8
:102EA000FDF77AFF0246BB68D31A022B02D903232F
:102EB000FB7305E02C4B1B6803F00053002BEFD194
:102EC000FB7B002B4AD13B68002B11D1264B5B6961
:102ED00023F41F3323F440737A68926811027A68EE
:102EE000D268120952040A431F4913434B6111E08F
:102EF0001D4B5B6923F0C06323F4FE437A6892683C
:102F000011027A6812695208013A52060A431649B8
:102F100013434B61144B1B68134A43F080531360F7
:102F2000FDF73AFFB86009E0FDF736FF0246BB68DF
:102F3000D31A022B02D90323FB7305E00A4B1B684B
:102F400003F00053002BEFD0FB7B002B06D1064B88
:102F50005A697B685B69044913434B61FB7B1846E4
:102F60001037BD4680BD00BF0010024080B582B062
:102F700000AF78607B68002B01D1012340E07B68C3
:102F80009B6F002B06D17B68002283F87420786841
:102F9000FDF76AFD7B6824229A677B681B681A68C4
:102FA0007B681B6822F001021A60786800F036F92D
:102FB0000346012B01D1012322E07B685B6A002BD1
:102FC00002D0786800F0E2FB7B681B685A687B6877
:102FD0001B6822F490425A607B681B689A687B6881
:102FE0001B6822F02A029A607B681B681A687B685B
:102FF0001B6842F001021A60786800F069FC034621
:1030000018460837BD4680BD80B58AB002AFF8606B
:10301000B9603B601346FB80FB689B6F202B40F040
:103020008280BB68002B02D0FB88002B01D10123DA
:103030007AE0FB6893F87430012B01D1022373E02E
:10304000FB68012283F87420FB680022C3F880200B
:10305000FB6821229A67FDF79FFE7861FB68FA887A
:10306000A3F85020FB68FA88A3F85220FB689B68FD
:10307000B3F5805F08D1FB681B69002B04D10023E6
:10308000FB61BB68BB6103E0BB68FB610023BB6104
:10309000FB68002283F874202DE03B6800937B6975
:1030A00000228021F86800F05CFC0346002B01D070
:1030B000032339E0FB69002B0BD1BB691A88FB683D
:1030C0001B68C2F3080292B21A85BB690233BB6166
:1030D00008E0FB691A78FB681B6892B21A85FB69E5
:1030E0000133FB61FB68B3F852309BB2013B9AB2EB
:1030F000FB68A3F85220FB68B3F852309BB2002B58
:10310000CBD13B6800937B6900224021F86800F036
:1031100028FC0346002B01D0032305E0FB68202296
:103120009A67002300E0022318462037BD4680BD81
:1031300080B58AB000AFF860B9601346FB80FB68C9
:10314000DB6F202B42D1BB68002B02D0FB88002B09
:1031500001D101233BE0FB6893F87430012B01D1CE
:10316000022334E0FB68012283F87420FB6800220C
:103170001A66FB681B68184A93421FD0FB681B68DD
:103180005B6803F40003002B18D0FB681B687B61AD
:103190007B6953E8003F3B613B6943F080637B629E
:1031A000FB681B681A467B6A3B62FA61F9693A6AF6
:1031B00041E80023BB61BB69002BE6D1FB881A46BE
:1031C000B968F86800F092FC034600E00223184654
:1031D0002837BD4680BD00BF0080004080B483B06A
:1031E00000AF786000BF0C37BD465DF8047B7047C8
:1031F00080B483B000AF786000BF0C37BD465DF887
:10320000047B704780B483B000AF78600B467B804E
:1032100000BF0C37BD465DF8047B70472DE9B04F09
:103220008AB000AFF860002387F82230FB689A6804
:10323000FB681B691A43FB685B691A43FB68DB691F
:1032400013437B62FB681B681A68A44B1340FA683F
:103250001268796A0B431360FB681B685B6823F490
:103260004051FB68DA68FB681B680A435A60FB68D8
:103270009B697B62FB681B68994A934204D0FB6898
:103280001B6A7A6A13437B62FB681B689B6823F4A2
:103290003061FB681B687A6A0A439A60FB681B68A6
:1032A000904A934226D1904BD3F8883003F0030321
:1032B000032B1BD801A252F823F000BFCD32000827
:1032C000DD320008D5320008E5320008012387F816
:1032D000233016E1022387F8233012E1042387F814
:1032E00023300EE1082387F823300AE1102387F802
:1032F000233006E1FB681B687C4A934238D17A4B45
:10330000D3F8883003F00C030C2B2DD801A252F80F
:1033100023F000BF4933000869330008693300080F
:10332000693300085933000869330008693300081D
:103330006933000851330008693300086933000815
:103340006933000861330008002387F82330D8E090
:10335000022387F82330D4E0042387F82330D0E019
:10336000082387F82330CCE0102387F82330C8E007
:10337000FB681B685E4A934225D15B4BD3F88830CB
:1033800003F03003302B16D0302B18D8202B0AD066
:10339000202B14D8002B02D0102B08D00FE00023D4
:1033A00087F82330ADE0022387F82330A9E0042317
:1033B00087F82330A5E0082387F82330A1E0102305
:1033C00087F823309DE0FB681B684A4A934225D169
:1033D000454BD3F8883003F0C003C02B16D0C02B68
:1033E00018D8802B0AD0802B14D8002B02D0402B69
:1033F00008D00FE0002387F8233082E0022387F80B
:1034000023307EE0042387F823307AE0082387F80E
:10341000233076E0102387F8233072E0FB681B68C6
:10342000354A93422AD1304BD3F8883003F44073A5
:10343000B3F5407F1AD0B3F5407F1BD8B3F5007FBA
:103440000CD0B3F5007F15D8002B03D0B3F5807FE7
:1034500008D00FE0002387F8233052E0022387F8DA
:1034600023304EE0042387F823304AE0082387F80E
:10347000233046E0102387F8233042E0FB681B68C6
:10348000174A93423AD1184BD3F8883003F440637B
:10349000B3F5406F1AD0B3F5406F1BD8B3F5006F8A
:1034A0000CD0B3F5006F15D8002B03D0B3F5806FA7
:1034B00008D00FE0002387F8233022E0022387F8AA
:1034C00023301EE0042387F823301AE0082387F80E
:1034D000233016E0102387F8233012E0F369FFEF62
:1034E00000800040003801400010024000440040CD
:1034F00000480040004C004000500040102387F876
:103500002330FB681B689F4A93427AD197F8233097
:10351000082B24D801A252F823F000BF413500083F
:103520005F350008493500085F3500084F35000851
:103530005F3500085F3500085F3500085735000823
:10354000FEF7BCFFF86110E08F4BFB610DE0FEF76A
:103550001DFFF86109E04FF40043FB6105E0002323
:10356000FB61012387F8223000BFFB69002B00F0CC
:10357000FB80FB685A6813465B001344FA699A4261
:1035800005D3FB685B681B03FA699A4203D90123E0
:1035900087F82230E8E0FB6900221C4615464FF010
:1035A00000024FF000032B0243EA14632202F96881
:1035B0004968490800208846814612EB080A43EB17
:1035C000090BFB685B6800223B607A60D7E9002347
:1035D00050465946FCF74CFE02460B461346BB616B
:1035E000BB69B3F5407F08D3BB69B3F5801F04D234
:1035F000FB681B68BA69DA60B6E0012387F82230FD
:10360000B2E0FB68DB69B3F5004F5ED197F8233079
:10361000082B28D801A252F823F000BF4136000839
:10362000493600085136000867360008573600084A
:103630006736000867360008673600085F360008FE
:10364000FEF73CFFF86114E0FEF74EFFF86110E072
:103650004D4BFB610DE0FEF799FEF86109E04FF478
:103660000043FB6105E00023FB61012387F8223062
:1036700000BFFB69002B77D0FB695A00FB685B68D1
:103680005B081A44FB685B68B2FBF3F3BB61BB6980
:103690000F2B16D9BB69B3F5803F12D2BB699BB221
:1036A00023F00F03FB82BB695B089BB203F00703A7
:1036B0009AB2FB8A1343FB82FB681B68FA8ADA60C2
:1036C00052E0012387F822304EE097F82330082B90
:1036D00027D801A252F823F0FD360008053700086C
:1036E0000D37000823370008133700082337000878
:1036F00023370008233700081B370008FEF7DEFEDB
:10370000F86114E0FEF7F0FEF86110E01E4BFB617B
:103710000DE0FEF73BFEF86109E04FF40043FB616A
:1037200005E00023FB61012387F8223000BFFB691D
:10373000002B19D0FB685B685A08FB691A44FB68C8
:103740005B68B2FBF3F3BB61BB690F2B09D9BB69A3
:10375000B3F5803F05D2BB699AB2FB681B68DA609B
:1037600002E0012387F82230FB6800225A66FB68DA
:1037700000229A6697F8223018462837BD46BDE8E1
:10378000B08F00BF008000400024F40080B483B0FC
:1037900000AF78607B685B6A03F00103002B0AD0FE
:1037A0007B681B685B6823F400317B689A6A7B68DE
:1037B0001B680A435A607B685B6A03F00203002BB4
:1037C0000AD07B681B685B6823F480317B68DA6A07
:1037D0007B681B680A435A607B685B6A03F00403DA
:1037E000002B0AD07B681B685B6823F480217B6810
:1037F0001A6B7B681B680A435A607B685B6A03F03C
:103800000803002B0AD07B681B685B6823F4004127
:103810007B685A6B7B681B680A435A607B685B6AEB
:1038200003F01003002B0AD07B681B689B6823F40D
:1038300080517B689A6B7B681B680A439A607B683F
:103840005B6A03F02003002B0AD07B681B689B682F
:1038500023F400517B68DA6B7B681B680A439A602B
:103860007B685B6A03F04003002B1AD07B681B68FF
:103870005B6823F480117B681A6C7B681B680A43C1
:103880005A607B681B6CB3F5801F0AD17B681B688C
:103890005B6823F4C0017B685A6C7B681B680A4331
:1038A0005A607B685B6A03F08003002B0AD07B6858
:1038B0001B685B6823F400217B689A6C7B681B683B
:1038C0000A435A6000BF0C37BD465DF8047B704761
:1038D00080B586B002AF78607B680022C3F8802094
:1038E000FDF75AFAF8607B681B681B6803F0080351
:1038F000082B0ED16FF07E430093FB6800224FF43B
:103900000011786800F02DF80346002B01D0032346
:1039100023E07B681B681B6803F00403042B0ED1B3
:103920006FF07E430093FB6800224FF480017868BB
:1039300000F017F80346002B01D003230DE07B684D
:1039400020229A677B682022DA677B6800221A6649
:103950007B68002283F87420002318461037BD4688
:1039600080BD80B59CB000AFF860B9603B60134685
:10397000FB71A5E0BB6FB3F1FF3F00F0A180FDF745
:103980000BFA02463B68D31ABA6F9A4202D3BB6F56
:10399000002B3ED1FB681B683B653B6D53E8003F45
:1039A000FB64FB6C23F4D0737B66FB681B681A46D0
:1039B0007B6EFB65BA65B96DFA6D41E800237B65E6
:1039C0007B6D002BE6D1FB681B680833FB63FB6B48
:1039D00053E8003FBB63BB6B23F001033B66FB680E
:1039E0001B6808333A6EBA647B64796CBA6C41E840
:1039F00000233B643B6C002BE5D1FB6820229A67D7
:103A0000FB682022DA67FB68002283F87420032316
:103A100067E0FB681B681B6803F00403002B4FD0B2
:103A2000FB681B68DB6903F40063B3F5006F47D1E3
:103A3000FB681B684FF400621A62FB681B68BB627C
:103A4000BB6A53E8003F7B627B6A23F4D073FB665A
:103A5000FB681B681A46FB6E7B633A63396B7A6BB3
:103A600041E80023FB62FB6A002BE6D1FB681B6880
:103A700008337B617B6953E8003F3B613B6923F07E
:103A80000103BB66FB681B680833BA6E3A62FB61D0
:103A9000F9693A6A41E80023BB61BB69002BE5D1B3
:103AA000FB6820229A67FB682022DA67FB682022E5
:103AB000C3F88020FB68002283F87420032310E001
:103AC000FB681B68DA69BB681340BA689A420CBF8E
:103AD00001230023DBB21A46FB799A423FF44AAF36
:103AE000002318467037BD4680BD000080B596B0F3
:103AF00000AFF860B9601346FB80FB68BA685A658E
:103B0000FB68FA88A3F85820FB680022C3F88020DD
:103B1000FB682222DA67FB681B6F002B2BD0FB6847
:103B20001B6F424ADA62FB681B6F414A1A63FB68EB
:103B30001B6F404A5A63FB681B6F00229A63FB6845
:103B4000186FFB681B6824331946FB685B6D1A46C7
:103B5000FB88FDF7E1FB0346002B0CD0FB6810222D
:103B6000C3F88020FB68002283F87420FB682022C1
:103B7000DA67012355E0FB68002283F87420FB68B4
:103B80001B69002B18D0FB681B68FB63FB6B53E8B9
:103B9000003FBB63BB6B43F480737B65FB681B68B2
:103BA0001A467B6DBB647A64796CBA6C41E8002379
:103BB0003B643B6C002BE6D1FB681B680833BB629F
:103BC000BB6A53E8003F7B627B6A43F001033B65BD
:103BD000FB681B6808333A6D7A633B63396B7A6B19
:103BE00041E80023FB62FB6A002BE5D1FB681B6800
:103BF00008337B617B6953E8003F3B613B6943F0DD
:103C00004003FB64FB681B680833FA6C3A62FB6193
:103C1000F9693A6A41E80023BB61BB69002BE5D131
:103C2000002318465837BD4680BD00BF4B3D0008F5
:103C30006F3E0008A73E000880B489B000AF7860EE
:103C40007B681B68FB60FB6853E8003FBB60BB6898
:103C500023F0C003FB617B681B681A46FB69BB61EC
:103C60007A617969BA6941E800233B613B69002BBD
:103C7000E6D17B6820229A6700BF2437BD465DF8F5
:103C8000047B704780B495B000AF78607B681B6898
:103C90007B637B6B53E8003F3B633B6B23F4907388
:103CA000FB647B681B681A46FB6C3B64FA63F96B28
:103CB0003A6C41E80023BB63BB6B002BE6D17B6809
:103CC0001B6808333B623B6A53E8003FFB61FB69BA
:103CD00023F00103BB647B681B680833BA6CFA628B
:103CE000BB62B96AFA6A41E800237B627B6A002BF7
:103CF000E5D17B681B6E012B18D17B681B68FB60CC
:103D0000FB6853E8003FBB60BB6823F010037B6493
:103D10007B681B681A467B6CBB617A617969BA69FA
:103D200041E800233B613B69002BE6D17B68202200
:103D3000DA677B6800221A667B6800225A6600BF39
:103D40005437BD465DF8047B704780B59CB000AF2A
:103D500078607B689B6AFB667B681B681B6803F066
:103D60002003002B70D1FB6E0022A3F85A20FB6EBB
:103D70001B68FB64FB6C53E8003FBB64BB6C23F423
:103D80008073BB66FB6E1B681A46BB6EBB657A65AB
:103D9000796DBA6D41E800233B653B6D002BE6D1A0
:103DA000FB6E1B680833BB63BB6B53E8003F7B6350
:103DB0007B6B23F001037B66FB6E1B6808337A6E16
:103DC0007A643B64396C7A6C41E80023FB63FB6BDB
:103DD000002BE5D1FB6E1B6808337B627B6A53E8DE
:103DE000003F3B623B6A23F040033B66FB6E1B686F
:103DF00008333A6E3A63FB62F96A3A6B41E8002392
:103E0000BB62BB6A002BE5D1FB6E2022DA67FB6E3A
:103E10001B6E012B18D1FB6E1B683B613B6953E89D
:103E2000003FFB60FB6823F01003FB65FB6E1B6823
:103E30001A46FB6DFB61BA61B969FA6941E8002372
:103E40007B617B69002BE6D1FB6E1B6E012B07D1DA
:103E5000FB6EB3F858301946F86EFFF7D3F902E05D
:103E6000F86EFFF7BBF900BF7037BD4680BD80B567
:103E700084B000AF78607B689B6AFB60FB681B6E58
:103E8000012B09D1FB68B3F858305B089BB2194687
:103E9000F868FFF7B7F902E0F868FCF78BFC00BFA1
:103EA0001037BD4680BD80B586B000AF78607B68B6
:103EB0009B6A7B617B699B6F3B617B69DB6FFB600E
:103EC0007B691B689B6803F08003802B09D13B69E9
:103ED000212B06D17B690022A3F852207869FFF7D5
:103EE000ABFE7B691B689B6803F04003402B09D144
:103EF000FB68222B06D17B690022A3F85A2078693F
:103F0000FFF7C0FE7B69D3F8803043F010027B6975
:103F1000C3F880207869FFF76BF900BF1837BD46FA
:103F200080BD000080B582B000AF786039603A682B
:103F300001214C4800F08AFB0346002B00F08880EA
:103F4000484B1B6803F55043B833474A9360454BD1
:103F50001B6803F55043B833434AD360414B1B6899
:103F6000424A93603F4B1B68404AD3603D4B1B68FD
:103F70003F4A93603B4B1B683D4AD360394B1B68FB
:103F80003C4A9360374B1B683A4AD360354B1B68F9
:103F900003F56A531833384A9360324B1B6803F5B4
:103FA0006A531833344AD3602E4B1B6803F56A53A7
:103FB0001833324A93602B4B1B6803F56A5318334E
:103FC0002E4AD360274B1B682D4A9360254B1B68F4
:103FD0002B4AD360234B1B6803F5C853294A9360CF
:103FE000204B1B6803F5C853264AD3601D4B1B6842
:103FF000254A93601B4B1B68234AD360194B1B68EF
:1040000003F5F073214A9360164B1B6803F5F073B8
:104010001E4AD360134B1B681D4A9360114B1B68EB
:104020001B4AD3600F4B1B6803F5A873194A9360B2
:104030000C4B1B6803F5A873164AD360094B1B6829
:10404000154A9360074B1B68134AD360012305E0B0
:1040500013223021786800F0DDFB00231846083772
:10406000BD4680BD004B01208C0100209C0100203A
:10407000AC010020BC010020CC010020DC010020AC
:10408000EC010020FC0100200C0200201C0200209A
:10409000BC000020CC000020DC00002080B582B0F5
:1040A00000AF786039603A6801216B4800F07AFA15
:1040B0000346002B00F0C680684B1B6843F080432A
:1040C000664A1360644B1B68644A9360624B1B68CA
:1040D000624AD360624B1B6843F08043604A1360BE
:1040E0005D4B1B6803F516735D4A93605A4B1B6862
:1040F00003F516735A4AD3605A4B1B6843F080434A
:10410000584A1360544B1B6803F51C73554A93605F
:10411000514B1B6803F51C73524AD360524B1B680A
:1041200043F08043504A13604B4B1B6803F51F5309
:1041300030334D4A9360484B1B6803F51F533033AF
:10414000494AD360494B1B6843F08043474A136098
:10415000414B1B6803F520533033444A93603E4B78
:104160001B6803F520533033404AD360404B1B6833
:1041700043F080433E4A1360374B1B6803F53E23F0
:1041800030333B4A9360344B1B6803F53E23303396
:10419000374AD360374B1B6843F08043354A13607E
:1041A0002D4B1B6803F53E2303F50473314A9360DE
:1041B000294B1B6803F53E2303F504732D4AD36096
:1041C0002D4B1B6843F080432B4A1360224B1B6826
:1041D00003F5472303F57963274A93601E4B1B6859
:1041E00003F5472303F57963234AD360234B1B6808
:1041F00043F08043214A1360174B1B6803F54823A3
:10420000E0331E4A9360144B1B6803F54823E033E8
:104210001A4AD3601A4B1B6843F08043184A136054
:104220000D4B1B6803F54B2303F51563144A93608C
:10423000094B1B6803F54B2303F51563104AD36044
:10424000012305E012223021786800F0E3FA002310
:1042500018460837BD4680BD044B0120EC00002005
:10426000FC0000200C0100201C0100202C0100207B
:104270003C0100204C0100205C0100206C0100206A
:104280007C01002080B582B000AF7860786800F0D3
:1042900053FA034618460837BD4680BD80B584B042
:1042A00002AF786039600023019305230093012356
:1042B000044A3968786800F059FC03461846083704
:1042C000BD4680BD180D002080B596B000AFF860E7
:1042D000B9607A600021F868FFF7E0FF0346FB64ED
:1042E00097F84C30002B01D0FB6C5DE007F1140314
:1042F000184600F0DDF8034683F00103DBB2002B23
:1043000008D0FB681B681846FFF7BCFF0346FB6438
:10431000FB6C49E0BB68002B16D000237B650EE0E8
:10432000796D7B6D9B00BA6813441A6807F114031A
:104330000C33184600F022F97B6D01337B657B8CD2
:104340001A467B6D9342EBDB7B68002B16D0002373
:104350003B650EE0396D3B6D9B007A6813441A682B
:1043600007F114030433184600F008F93B6D0133DC
:104370003B657B8B1A463B6D9342EBDBFB681B680E
:1043800007F114021146184600F046F8034683F080
:104390000103DBB2002B06D0FB681B681846FFF751
:1043A00071FF0346FB64FB6C18465837BD4680BD61
:1043B00080B582B000AF786039607B68002B04D193
:1043C000064B7B607B68064A1A603968786800F0A3
:1043D00027FA034618460837BD4680BD180D002051
:1043E0000001C0A180B582B000AF786039607B6801
:1043F000002B04D1064B7B607B68064A1A60396843
:10440000786800F0E3FA034618460837BD4680BDD9
:10441000180D00200001C0A180B584B000AF786005
:1044200039603968786800F077FCF860FB68002B29
:1044300001D1002328E00123FB723968F868FFF7F7
:104440002DFE03461A46FB7A1340002B14BF0123AE
:104450000023FB723968F868FFF764FD03461A46CB
:10446000FB7A1340002B14BF01230023FB727868F2
:1044700000F040FD03461A46FB7A1340002B14BFA0
:1044800001230023FB72FB7A18461037BD4680BD1E
:1044900080B584B000AFF860B9607A607A68B968B6
:1044A000F86800F0AFFD034618461037BD4680BDE2
:1044B00080B586B000AF78607B68002B01D1002307
:1044C00016E00D4A07F1100392E8030083E80300A9
:1044D0000A4A07F1080392E8030083E8030007F1A2
:1044E000100207F108031946786800F003F9034643
:1044F00018461837BD4680BD488000085080000827
:1045000078B310B40368174A23F07E4323F4000302
:1045100093421ED084696268037D4169A3F101035F
:10452000B3FA83F35B09B3EB112FC1F317200BDA56
:10453000012B02D1022807D0022354F823100133A3
:10454000984201FB02F2F3D122EAE2705DF8044BDB
:1045500070470029DED0846963681F3323F01F028F
:10456000DAE77047C000040038B1436823B14088DF
:10457000003818BF012070471846704750B1436893
:104580004BB1408800B97047C1EBC10103EB810119
:1045900001204A6070471846704700BF01207047ED
:1045A000704700BF002A37D0F8B50446A0B10F46C7
:1045B00091B1254B1068984215460FD055685DB1F2
:1045C0002E689E422AD0A1F101002560B0FA80F049
:1045D0004009F8BDA74234D00020F8BD101DFFF7F8
:1045E000C3FF0028F8D0EB889F42F5D14FF0000EB2
:1045F000231F7046AA6802EB0E0C0EF11C0EDCF8AD
:10460000044024B10130874243F8044FF2D1381AF4
:10461000B0FA80F04009F8BD00207047231F2846FB
:10462000002400E0144650F8042FB242D2D043F8E0
:10463000042F621C9742F5D1023455F82430B3425E
:10464000CAD10120F8BD00BFDECAFAA1002A38D0C5
:10465000F8B50446A0B10F4691B1254B10689842B9
:1046600015460FD0156A5DB12E689E422BD0A1F180
:1046700001002560B0FA80F04009F8BDA74235D0AE
:104680000020F8BD02F10C00FFF76EFF0028F7D004
:10469000EB899F42F4D14FF0000E231F70462A6928
:1046A00002EB0E0C0EF11C0EDCF8044024B10130BC
:1046B000874243F8044FF2D1381AB0FA80F040092B
:1046C000F8BD00207047231F2846002400E0144650
:1046D00050F8042FB242D1D043F8042F621C974205
:1046E000F5D1023455F82430B342C9D10120F8BDC8
:1046F000DECAFAA1A0B1B1B1C2B110B403460D4CEB
:1047000043F8044B00F10C0C03C983E8030092E862
:1047100003008CE80300012318465DF8044B704742
:104720000346184670470B4618467047134618460E
:10473000704700BFDECAFAA110B5F0B12F4B026876
:104740009A42044619D1FFF729FF2D4B1B6803F449
:10475000E063B3F5806F3CD02A4A0123C2F8083CDD
:10476000D2F8083C002BFBD1274BC2F8003CD2F812
:10477000002C264B9A4238D0FEE7FFF70FFF204B64
:104780001B6803F4E063B3F5806F10D01D4A01236A
:10479000C2F8083CD2F8083C002BFBD11A4BC2F8F7
:1047A000003CD2F8002C194B9A420DD0FEE7184A73
:1047B000012393609368002BFCD1134B13601268A4
:1047C000124B9A4200D0FEE7FFF7EAFE41F21000DA
:1047D00010BD0F4A012393609368002BFCD10A4B54
:1047E00013601268094B9A4207D1FFF7D9FE04F112
:1047F0001000BDE8104000F08BBEFEE70001C0A134
:10480000002004E000400258C2A507F4CDB5E8B589
:104810000030024010B1103000F080BE704700BF81
:104820002DE9F04F85B00291F0B1624B02689A42D7
:10483000074619D1FFF7B2FE5F4B1B6803F4E06334
:10484000B3F5806F3DD05D4A0123C2F8083CD2F831
:10485000083C002BFBD15A4BC2F8003CD2F8002C8C
:10486000584B9A4239D0FEE7FFF798FE524B1B682F
:1048700003F4E063B3F5806F10D0504A0123C2F80F
:10488000083CD2F8083C002BFBD14D4BC2F8003C51
:10489000D2F8002C4B4B9A420DD0FEE74A4A012336
:1048A00093609368002BFCD1454B13601268454B15
:1048B0009A4200D0FEE7FFF773FE002005B0BDE886
:1048C000F08F414A012393609368002BFCD13C4B4D
:1048D000136012683B4B9A4255D1FFF761FEBB8DC6
:1048E000002B51D0D7F830A0BAF1000F4CD04FF0C8
:1048F000000B5D46039716E0019901237B50B169D7
:10490000496821614FF001032375C4E900C262695F
:10491000A060002369F31F22C4F81880E36001350A
:104920000BF11C0B6261BAF80030AB42AAB23AD963
:10493000DAF80430E9000191002B34D053F82560F7
:10494000002E30D0DAF80830B269D6F80C80106842
:10495000D3E90147B368C3F3172902F029F9B16914
:10496000844607EBC5008A685C440028C8D0002153
:1049700047F835103168416011B149880029BBD131
:10498000B1690020BCE7FEE71822112107F11000F1
:1049900000F0C4FD00221046029B002B8ED01A802E
:1049A00005B0BDE8F08F039F002AEDD0DAF808309B
:1049B0005868F1E70001C0A1002004E0004002585F
:1049C000C2A507F4CDB5E8B5003002402DE9F04F9F
:1049D00085B00291F0B15F4B02689A42074619D147
:1049E000FFF7DCFD5C4B1B6803F4E063B3F5806FFD
:1049F0003DD05A4A0123C2F8083CD2F8083C002BAB
:104A0000FBD1574BC2F8003CD2F8002C554B9A42D0
:104A100039D0FEE7FFF7C2FD4F4B1B6803F4E0639C
:104A2000B3F5806F10D04D4A0123C2F8083CD2F88C
:104A3000083C002BFBD14A4BC2F8003CD2F8002CBA
:104A4000484B9A420DD0FEE7474A01239360936892
:104A5000002BFCD1424B13601268424B9A4200D0AB
:104A6000FEE7FFF79DFD002005B0BDE8F08F3E4A50
:104A7000012393609368002BFCD1394B13601268BB
:104A8000384B9A4250D1FFF78BFDBB8D012B58D983
:104A90004FF0000BD7F830A003975D4616E0019960
:104AA00001237B50B169496821614FF001032375EF
:104AB000C4E900C26269A060002369F31F22C4F840
:104AC0001880E36001350BF11C0B6261BAF80C3001
:104AD000AB42AAB229D9DAF81030E900019123B328
:104AE00053F825600EB3DAF81430B269D6F80C80AA
:104AF0001068D3E90147B368C3F3172902F058F8E7
:104B0000B169844607EBC5008A685C440028CAD0B6
:104B1000002147F835103168416011B149880029FA
:104B2000BDD1B1690020BEE7FEE7039F4AB1DAF8C4
:104B300014305868029B002B96D01A8005B0BDE84F
:104B4000F08F1822112107F1100000F0E7FC00227D
:104B50001046EFE70001C0A1002004E00040025829
:104B6000C2A507F4CDB5E8B5003002402DE9F04309
:104B700083B006469DF828809DF82C9015461F4668
:104B8000FFF70CFD88B15D4A126802F4E062B2F5ED
:104B9000806F03460ED05A4A1821C2F8081CD2F87A
:104BA000081C182918D0FFF7FBFC44F2331003B09F
:104BB000BDE8F083534A01219160142101E00139DD
:104BC00002D09468002CFAD14E4A916811B912684B
:104BD000013208D01846E6E70121C2F8081CD2F8D5
:104BE000081C0029FBD11846FFF7DAFCFFF7D6FCBA
:104BF000424B1B6803F4E063B3F5806F10D0404B69
:104C00000122C3F8082CD3F8081C0029FBD13E4A26
:104C1000C3F8002CD3F8002C3C4B9A420CD0FEE792
:104C2000384A012393609368002BFCD1364B136004
:104C30001268364B9A4222D1FFF7B2FC8EB3344B46
:104C40002B60356000F062FCD0B1FFF7A7FC2B4B66
:104C50001B6803F4E063B3F5806F25D0284A012375
:104C6000C2F8083CD2F8083C002BFBD1264BC2F816
:104C7000003CD2F8002C254B9A4222D0FEE7FEE7FA
:104C800030240023336010264A464146384602F05D
:104C900035F80346002064F30700AB6466F31F2079
:104CA00085E741F2100082E7164A0123936093687A
:104CB000002BFCD1144B13601268144B9A4200D0A5
:104CC000FEE7FFF76DFC00224146384602F016F879
:104CD000002204460521012002F010F8844201D090
:104CE0000124CEE70B4B019301A800F023FC10B187
:104CF00000263446C8E70224C3E700BF002004E0D2
:104D00000040025800300240C2A507F4CDB5E8B516
:104D10000001C0A1038404842DE9F843F8B16E4B6F
:104D200002689A4204461AD10E46FFF737FC6B4BD5
:104D30001B6803F4E063B3F5806F3DD0684A01233C
:104D4000C2F8083CD2F8083C002BFBD1654BC2F8F6
:104D5000003CD2F8002C644B9A4239D0FEE7FFF7B2
:104D60001DFC5E4B1B6803F4E063B3F5806F10D04D
:104D70005B4A0123C2F8083CD2F8083C002BFBD167
:104D8000584BC2F8003CD2F8002C574B9A420DD039
:104D9000FEE7564A012393609368002BFCD1514BE8
:104DA00013601268504B9A4200D0FEE7FFF7F8FB01
:104DB00000263046BDE8F8834C4A0123936093688F
:104DC000002BFCD1474B13601268474B9A421CD111
:104DD000FFF7E6FB002E6FD0454B32689A4215D1A3
:104DE000D6E901213369B6F80CE0F789A362C4E97A
:104DF00007210323E784A4F824E0E3602046264645
:104E000000F0C2FB3046BDE8F883FEE701213046E2
:104E100035467668FFF774FB05F11C0881460121D1
:104E200040462F6AFFF76CFBB9F1000F25D0012235
:104E3000964630BB8046074676B3E38B734523D353
:104E400042B1AC46BCE80F00256A0FC59CE80700DC
:104E500085E80700E38CA4F81EE00026BB42A68389
:104E600023D37FB3C446BCE80F00A56A0FC59CE8F6
:104E70000700B64685E80700BBE74A46CE464D46E2
:104E8000D7E70FB30127D7E71222162104F110004C
:104E900000F044FB00268CE7B9F1000FCDD01021C3
:104EA0001222601800F03AFB83E71322162104F166
:104EB000100000F033FB7CE710211122601800F095
:104EC0002DFB76E7BE4694E710211322601800F010
:104ED00025FB3E466DE700BF0001C0A1002004E0B5
:104EE00000400258C2A507F4CDB5E8B50030024035
:104EF000DECAFAA138B5F0B13C4B02689A420446CA
:104F000019D1FFF74BFB3A4B1B6803F4E063B3F591
:104F1000806F3BD0374A0123C2F8083CD2F8083CE6
:104F2000002BFBD1344BC2F8003CD2F8002C334BA1
:104F30009A4237D0FEE7FFF731FB2D4B1B6803F495
:104F4000E063B3F5806F10D02A4A0123C2F8083C11
:104F5000D2F8083C002BFBD1274BC2F8003CD2F81A
:104F6000002C264B9A420DD0FEE7254A0123936080
:104F70009368002BFCD1204B136012681F4B9A42A0
:104F800000D0FEE7FFF70CFB002038BD1C4A0123D0
:104F900093609368002BFCD1174B13601268174B7A
:104FA0009A421AD1FFF7FCFAE36813F0020515D014
:104FB000204600F0F7FAE36B6BB1656B07E0D4E9CC
:104FC0000F3298472B69AB4205D023B11D462946C5
:104FD0000020002DF3D1012038BDFEE71022112161
:104FE000A01800F09BFA284638BD00BF0001C0A100
:104FF000002004E000400258C2A507F4CDB5E8B592
:10500000003002402DE9F04F0E4685B0934605462C
:1050100020B1B84B02689A4218BF0025FFF7BEFACC
:10502000B54B1B6803F4E063B3F5806F10D0B34A4F
:105030000123C2F8083CD2F8083C002BFBD1B04B4E
:10504000C2F8003CD2F8002CAE4B9A420DD0FEE7DD
:10505000AD4A012393609368002BFCD1A84B1360E9
:105060001268A84B9A4240F02C81FFF799FA002D64
:1050700000F05481AB8D002B00F02481EB68D5F853
:1050800030A003F003030027032B6F6140F03E8143
:10509000002E00F01D81BAF1000F00F01981BAF85E
:1050A0000030002B00F01481B369CDF80CB01B6800
:1050B000CDE90135DAF80430002B72D053F82740DF
:1050C000002C6ED0DAF80830D3F8009019EB0718EE
:1050D0004FEA071B00F0DE81A369012130465D68BD
:1050E000FFF70EFA8542C0F01B81E068B169C26823
:1050F000CB689A4240F0148182688B689A4240F0F3
:105100000F8142684B689A4240F00A81A369D3E953
:10511000000101F0E1FD0546204601F0F5FD854264
:10512000C0F0FE80A369186801F042FD3368584062
:1051300030F07E4040F0B9817368002B00F0AC8104
:10514000B3691B68002B00F09C81019A9A4238BF1A
:105150001A462046019201F0D7FDC8F80800B3694D
:105160001B6800FB03F3C8F80C307168C8F8041022
:105170000B4449F80B30A06903689A0007F1010756
:1051800006F11C0600F1AF80D0E902329B1A1944E7
:105190008160A369D8F80420DA60BAF80030BB4215
:1051A00088D8DDE9025BAA8DBBF1000F00F0868193
:1051B000012A40F25E81D5F83090B9F80C30002B0E
:1051C00000F057815E4600272C46D9F81030002B9E
:1051D00000F0B48053F82750002D00F0AF80D9F8CC
:1051E0001430D3F8008018EB071A4FEA071B00F0C1
:1051F0007181AB6901215B6802933046FFF780F94A
:10520000029B8342C0F03481E868B169C268CB6810
:105210009A4240F02D8182688B689A4240F0288142
:1052200042684B689A4240F02381AB69D3E90001A0
:1052300001F052FD0290284601F066FD029B834278
:10524000C0F01681AB69186801F0B2FC33685840B1
:1052500030F07E4040F036817368002B00F04D81C5
:10526000B3691B68002B00F03F81019A9A4238BF56
:105270001A462846019201F047FDCAF80800B369B2
:105280001B6800FB03F3CAF80C307168CAF80410FD
:105290000B4448F80B30A86903689B0007F101072D
:1052A00006F11C0645D4D0E902329B1A19448160EC
:1052B000AB69DAF80420DA60B9F80C309F4284D385
:1052C0003CE0FEE7EA686B6102F00302032A1DD1AD
:1052D0001722122105F1100000F020F900242046C9
:1052E00005B0BDE8F08FBAF800309F42FFF4E2AE9F
:1052F00057E700BF0001C0A1002004E000400258B1
:10530000C2A507F4CDB5E8B5003002403022112126
:1053100005F1100000F002F90024E0E72C46DEE77A
:10532000029D1822122105F1100000F0F7F8002468
:10533000D5E7B9F80C309F42FFF447AFBDF8043011
:10534000A28DA3822546002A40F08C80164617467F
:10535000EC8A9C4238BFAB46C1D2002E30D04FF011
:10536000000814E08268C5686368521B13448360B8
:105370008B696268DA60D4E9013159F80A200B447C
:10538000934224BFE368D31A636008F101083388AD
:1053900043454FEA081A13D973688BB153F82810A4
:1053A00071B18869B2680368D2F800909D0009EB7A
:1053B0000814D7D58168A268606801F073FBDAE74A
:1053C000584600F003F9002F3DD0002416E0D8E93C
:1053D000013259F80A1013448B4224BFD8F80C301C
:1053E000CB1AC8F804308169D1E90225521B134455
:1053F0008B608369D8F80420DA6001343B88A342CB
:1054000021D97B68FBB153F82400E0B1BA68836905
:10541000D2F800901A6892004FEA041A09EB0418B7
:10542000D5D5D8E90112986801F03CFBD8E90131E3
:1054300059F80A200B44934224BFD8F80C30D31AF1
:10544000C8F80430D9E7BBF81640BBF81430013473
:10545000A4B2A342ABF816403FF67FAF204605B09A
:10546000BDE8F08F012A2E6B3CD006F10C076FE7E8
:1054700025461822132105F1100000F04FF80024F2
:105480002DE7029D04462122122105F1100000F0B3
:1054900045F824E7029D1BE7029D044617221221CE
:1054A00005F1100000F03AF819E7029D19221221C7
:1054B00005F1100000F032F8002410E7BDF80430C8
:1054C000AB8240E704F110001922132100F026F806
:1054D000002404E704F110001722132100F01EF845
:1054E0005446FCE6002733E72546212204461321D3
:1054F00005F1100000F012F8F1E6254617220446E7
:10550000132105F1100000F009F8E8E601207047CA
:105510000346002200681A60704700BF0346007807
:1055200008B1002070471970196862F31F2101202B
:105530001960704782B0134B019318B10378032BA5
:1055400002D0002002B070479DF80420934204D09E
:10555000012080F0010002B0704742789DF80530CC
:105560009A4200F10100F3D110F8012F9DF80630A6
:105570009A42EDD142789DF807309A42E8D1002056
:10558000E7E700BF03840484014600204B6B43B16E
:105590001A69D9609A4200F1010002D00AB113469B
:1055A000F5E7704738B5446B00256CB16368DB07DD
:1055B00004D5236A20460BB1984701352369A342DD
:1055C00002D00BB11C46F0E7284638BD2DE9F0416A
:1055D000D0F83C800446B8F1000F2BD0416B8163BA
:1055E00021B3026C0120C047A66BFEB100273146F3
:1055F000226C0220C047A56B28466B6998472E692C
:10560000226CA16BB5424FF0030007D0C0470137B1
:10561000A663002EEBD13846BDE8F0810320C047D9
:1056200000230137A3633846BDE8F08100273846E0
:10563000BDE8F081456B8563002DF7D047466B6967
:10564000284698472B462D699D4204D0A563013713
:10565000002DF4D1DFE70023A3630137DBE700BFB0
:105660002DE9F043089D042B00EB85050ED0082B97
:105670000AD1A84208D211F8013B02EB83031B6850
:1056800040F8043B8542F6D8BDE8F083079B5E08EE
:1056900003F001074FEAC60906F1FF38A842F3D22A
:1056A0003EB300F1080E01F1FF3C01EB08041CF8C9
:1056B000013F1B0902EB83030EF1080E1B684EF835
:1056C000103C9CF8003003F00F0302EB83036445A9
:1056D0001B684EF80C3CEAD131444844002FDDD021
:1056E00011F8013B1B0902EB83031B6840F8043BE4
:1056F000D4E7002FF4D1A842FDD3BDE8F08300BF6A
:1057000082691388002B00F09280D2F804C0DCF884
:10571000042002B11268012B00F0B280DCF81010F6
:1057200001B10968022B00F084802DE9F04FDCF80C
:105730001C60A1B0002E00F09C80BCF818503468AA
:10574000012D40F298807668D2F80C80D1F80C9048
:10575000D8F804701397D9F804701497D9F80C701E
:105760001597D9F808701697D8F80C7092691797A2
:10577000D8F80870D0F83CE01897078DD2F808B038
:10578000D4F80CA0A2691997D0E90C54878DC06990
:105790001F90BEF800001B90BEF804001C90A8B239
:1057A0001A97DAE901781D90A0B2D2F808901E90FD
:1057B0000EB1B06986688969A4B208F1FF30D1F8EA
:1057C00008A01168ADB2013C013D00FB0484781EC5
:1057D00000FB0575C1F3434004282DD008282BD0C9
:1057E0001D9B0C94CDE90D531A9B0B93199B0A93A7
:1057F0001B9B09931C9B1E9C0697CDE90783159B59
:105800000593169B0493179B0393189B0293149B79
:105810000193139B00931F9B10934A4633465146B6
:1058200058460F9400F0B8FE21B0BDE8F08F5B68D9
:10583000FFDE00235B68FFDED268002AD0D0032B96
:1058400021D0DCF82830C3B11B68B3B19B69D3E920
:1058500001300193139B0093C1F3C613C1F341516F
:105860000B419BB24946002818BF8146FFF7F8FE5E
:10587000B6E7344668E7002666E700239B69FFDE4B
:1058800000235B68FFDE00235B68FFDE83691A8804
:10589000002A00F081812DE9F04F2DED028BD3F825
:1058A00004C0DCF8045095B005B12D68012A00F061
:1058B0008F82DCF8106006B13668022A00F06E8133
:1058C000DCF81C300B93002B00F074821946BCF8F6
:1058D000183009680D91012B40F26E820B9B5B68BA
:1058E0000B930B46E868F7684068996913907868ED
:1058F0000B681290D7E90247C3F3C61E00FB04F4FD
:10590000C3F341504EFA00F0032A109000F05D827C
:10591000DCF82820C3F34343002A00F046821268D3
:10592000002A00F04282042BD2F8189000F02C825A
:10593000082B00F029824FF0000BB269AB69916827
:105940000D9A9B685269069107FB04F4D2F8049003
:10595000129A01EB840081424FEA82040E900C946B
:1059600001EB820880F0138113999FED938A21F057
:10597000010203EB8202049201F00102C8080892BE
:105980008A0001F0070A0F9203EB401220335C46B5
:105990000790CB4605920293C146CDF844A00D9BDB
:1059A0009B699A68029B203B0A930B9B0BB19B69F6
:1059B0009B68002C00F0DA8110990429069900F008
:1059C000FD80494580F0D2800F460799DDF80880B8
:1059D000DDF814A04E1C02EBC6069446119A8E46C2
:1059E000002B00F0DE80F3EC012A9FED737ABEF10C
:1059F000000F00F0DE800CF10801404611F8075C52
:105A000010ED073A50ED083A10ED064A50ED054A00
:105A100010ED045A50ED035A10ED026A50ED016A80
:105A200004EB8505D5ED007A11F8085C04EB8505DB
:105A300067EE837A95ED003A11F8065CE3EE237A7F
:105A400004EB85050831D5ED003A11F80D5CE3EE65
:105A5000847A04EB8505203095ED004A11F80C5C42
:105A6000E4EE247A04EB8505D5ED004A11F80B5CD1
:105A7000E4EE857A04EB850595ED005A11F80A5C91
:105A8000E5EE257A04EB8505D5ED005A11F8095CA1
:105A9000E5EE867A04EB85058E4295ED006AE6EE2A
:105AA000267A37EE277AA9D1A6F108015046002AB6
:105AB0004AD00D78D0ED006A04EB8505D5ED007A6B
:105AC000012AA6EEA77A3FD04D78D0ED016A04EB0B
:105AD0008505D5ED007A022AA6EEA77A34D08D7816
